:020000040800F2
:100000000000032015080008B9060008C70600080C
:10001000CD060008D3060008D9060008000000003D
:10002000000000000000000000000000DF060008E3
:10003000ED06000800000000FB06000809070008A4
:1000400065080008650800086508000865080008DC
:1000500065080008650800086508000865080008CC
:1000600065080008650800086508000865080008BC
:1000700065080008650800086508000865080008AC
:10008000650800086508000865080008650800089C
:10009000650800086508000865080008650800088C
:1000A000650800086508000865080008650800087C
:1000B000650800086508000865080008650800086C
:1000C000650800086508000865080008650800085C
:1000D000650800086508000865080008650800084C
:1000E000650800086508000865080008650800083C
:1000F000650800086508000865080008650800082C
:10010000650800086508000865080008650800081B
:10011000650800086508000865080008650800080B
:1001200065080008650800086508000865080008FB
:1001300065080008650800086508000865080008EB
:1001400065080008650800086508000865080008DB
:1001500065080008650800086508000865080008CB
:1001600065080008650800086508000865080008BB
:1001700065080008650800086508000865080008AB
:10018000650800086508000865080008650800089B
:10019000650800086508000865080008650800088B
:0C01A000650800086508000865080008F4
:1001AC0010B5054C237833B9044B13B10448AFF3A5
:1001BC0000800123237010BD1800002000000000F7
:1001CC00B008000808B5034B1BB103490348AFF353
:1001DC00008008BD000000001C000020B0080008D2
:1001EC0080B500AF00F0E4FA00F04AF901216D206F
:1001FC0000F02AFA4FF47A7000F0E4FA00216D2036
:10020C0000F022FA4FF47A7000F0DCFAEEE72409E1
:10021C000008000000201800002018000020380002
:10022C000020000080B500AF164A164BD3F888307A
:10023C0043F47003C2F88830134A134B1B6843F025
:10024C0001031360104B00229A600F4A0E4B1B687F
:10025C0023F0847323F4803313600B4B0B4A5A60E6
:10026C00094A094B1B6823F480231360064B0022B8
:10027C00DA6000F089F8034B4FF000629A6000BF1F
:10028C0080BD00BF00ED00E00038024010300024BB
:10029C0080B487B000AF00233B6100237B61022355
:1002AC00FB600023BB6002237B60324B9B6803F036
:1002BC000C033B613B69042B07D0082B09D0002BA6
:1002CC003DD12D4B2D4A1A603DE02B4B2C4A1A6028
:1002DC0039E0284B5B689B0D03F00103BB60254B99
:1002EC005B6803F03F037B60BB68002B0CD0244A97
:1002FC007B68B2FBF3F31F4A52689209C2F30802FF
:10030C0002FB03F37B610BE01C4A7B68B2FBF3F34B
:10031C00184A52689209C2F3080202FB03F37B618C
:10032C00144B5B681B0C03F0030301335B00FB6095
:10033C007A69FB68B2FBF3F30F4A136003E00E4BD0
:10034C000E4A1A6000BF0B4B9B681B0903F00F038E
:10035C000C4AD35CDBB23B61074B1A683B6922FA4F
:10036C0003F3054A136000BF1C37BD465DF8047BE0
:10037C00704700BF00380240040000200024F40045
:10038C000095BA0A0800002080B483B000AF0023A7
:10039C007B6000233B60364A354B1B6843F480334B
:1003AC001360334B1B6803F400333B607B680133F1
:1003BC007B603B68002B03D17B68B3F5A06FF0D159
:1003CC002B4B1B6803F40033002B02D001233B6042
:1003DC0001E000233B603B68012B02D1244B254AF2
:1003EC005A60234A224B1B6C43F080531364224AFD
:1003FC00214B1B6843F4404313601D4A1C4B9B6804
:10040C0093601B4A1A4B9B6843F400439360184A51
:10041C00174B9B6843F4A0539360154A144B1B680D
:10042C0043F08073136000BF114B1B6803F0007323
:10043C00002BF9D0114B40F205721A600C4A0C4B90
:10044C009B6823F003039360094A094B9B6843F0B4
:10045C000203936000BF064B9B6803F00C03082B50
:10046C00F9D100BF0C37BD465DF8047B704700BF67
:10047C0000380240085A400700700040003C02401F
:10048C0080B485B000AF6C4A6B4B1B6B43F04003E0
:10049C0013636023FB73C5E0FB7B03F00F03FB705E
:1004AC00FB7B1B09BB70BB78062B00D004E0634BB5
:1004BC00BB60634B7B6000BFBB681A68FB785B005A
:1004CC00032101FA03F3DB431A40BB681A60BB68D3
:1004DC001968FA7813469B0013447A6813441B7806
:1004EC001A46FB785B0002FA03F341EA0302BB688D
:1004FC001A60FA7813469B0013447A6813441B78ED
:10050C00002B1DD1BB68DA68FB785B00032101FA74
:10051C0003F3DB431A40BB68DA60BB68D968FA782E
:10052C0013469B0013447A681344DB781A46FB7815
:10053C005B0002FA03F341EA0302BB68DA606EE087
:10054C00FA7813469B0013447A6813441B78012BEA
:10055C0008D0FA7813469B0013447A6813441B782E
:10056C00022B5CD1BB685A68FB78012101FA03F3BA
:10057C00DB431A40BB685A60BB685968FA7813466B
:10058C009B0013447A6813445B781A46FB7802FA92
:10059C0003F341EA0302BB685A60FA7813469B00E6
:1005AC0013447A6813449B78022B08D0FA781346CC
:1005BC009B0013447A6813449B78022B12D11E4A79
:1005CC001D4B5B6B43F4804353631E4A1D4B1B6AEC
:1005DC0043F00103136200BF1A4B1B6A03F48073D0
:1005EC00002BF9D0BB689A68FB785B00032101FAF9
:1005FC0003F3DB431A40BB689A60BB689968FA78CE
:10060C0013469B0013447A6813449B781A46FB7874
:10061C005B0002FA03F341EA0302BB689A60FB7BBE
:10062C000133FB73FB7B6E2B7FF636AF00BF1437A9
:10063C00BD465DF8047B704700380240001802404C
:10064C00CC0800080038014080B485B000AF0346E8
:10065C000A46FB711346BB71FB7903F00F03FB7267
:10066C00FB791B09BB72BB7A062B00D002E00E4B48
:10067C00FB6000BFFB685B69FA7A012101FA02F2A8
:10068C00D2431A40FB685A61FB685A69B979FB7A04
:10069C0001FA03F31A43FB685A6100BF1437BD46D5
:1006AC005DF8047B704700BF0018024080B400AFB7
:1006BC0000BFBD465DF8047B704780B400AFFEE719
:1006CC0080B400AFFEE780B400AFFEE780B400AFAB
:1006DC00FEE780B400AF00BFBD465DF8047B7047F9
:1006EC0080B400AF00BFBD465DF8047B704780B49A
:1006FC0000AF00BFBD465DF8047B704780B400AF0F
:10070C00044B1B680133034A136000BFBD465DF800
:10071C00047B70473400002080B483B000AF0346E4
:10072C003960FB7197F90730002B0BDA0D49FB7917
:10073C0003F00F03043B3A68D2B21201D2B20B445D
:10074C001A7609E0084997F907303A68D2B21201D3
:10075C00D2B20B4483F8002300BF0C37BD465DF8C2
:10076C00047B704700ED00E000E100E080B582B052
:10077C0000AF78607B68013BB3F1807F01D301232C
:10078C000FE00A4A7B68013B53600F214FF0FF30AA
:10079C00FFF7C2FF054B00229A60044B07221A6038
:1007AC00002318460837BD4680BD00BF10E000E0AE
:1007BC0080B500AF0248FFF7D9FF00BF80BD00BF76
:1007CC0020BF020080B584B000AF786000F010F854
:1007DC00F86000BF054B1A68FB68D21A7B689A4216
:1007EC00F8D300BF1037BD4680BD00BF34000020D9
:1007FC0080B400AF034B1B681846BD465DF8047B04
:10080C00704700BF34000020DFF834D0002103E033
:10081C000C4B5B58435004310B480C4B42189A421A
:10082C00F6D30B4A02E0002342F8043B094B9A42F0
:10083C00F9D3FFF7F7FC00F011F8FFF7D1FC704784
:10084C0000000320240900080000002018000020EC
:10085C001800002038000020FEE7000070B50D4E97
:10086C000D4CA41BA4100025A54209D10B4E0C4C19
:10087C0000F01AF8A41BA4100025A54205D170BDE8
:10088C0056F8253098470135EEE756F8253098474D
:10089C000135F2E71C0900081C0900081C090008B6
:1008AC002009000800000000F8B500BFF8BC08BC27
:1008BC009E467047F8B500BFF8BC08BC9E46704712
:1008CC00000000000000000000000000000000001C
:1008DC00000000000000000000000000000000000C
:1008EC0000000000000000000000000000000000FC
:1008FC0000000000000000000000000000000000EC
:10090C0000010000000001000000000000000000D9
:04091C00D1010008FD
:04092000AD0100081D
:10092400000000000095BA0A00000000000000006A
:08093400010203040607080993
:0400000508000815D2
:00000001FF
